:020000040800F2
:10000000A86300207902000807470008D90C0008FF
:1000100005470008A9090008B95F000800000000B2
:10002000000000000000000000000000E1010008E6
:10003000AB0900080000000025020008034F00087B
:10004000930200089302000893020008930200083C
:10005000930200089302000893020008930200082C
:10006000930200089302000893020008930200081C
:10007000930200089302000893020008930200080C
:1000800093020008930200089302000893020008FC
:1000900093020008930200089302000893020008EC
:1000A00093020008930200089302000893020008DC
:1000B00093020008930200089302000893020008CC
:1000C00093020008930200089302000893020008BC
:1000D00093020008095E00089302000893020008DA
:1000E000930200089302000893020008930200089C
:1000F000930200089302000893020008930200088C
:10010000930200089302000893020008930200087B
:10011000930200089302000893020008930200086B
:10012000930200089302000893020008930200085B
:1001300000F002F800F045F80AA090E8000C8244B4
:100140008344AAF10107DA4501D100F03AF8AFF291
:10015000090EBAE80F0013F0010F18BFFB1A43F0A5
:1001600001031847B4A60000D4A60000103A24BF2B
:1001700078C878C1FAD8520724BF30C830C144BF0C
:1001800004680C607047000000230024002500264E
:10019000103A28BF78C1FBD8520728BF30C148BFEA
:1001A0000B607047642900F0F380782900F02C81FF
:1001B000732900F05B82002070471FB51FBD10B58A
:1001C00010BD00F0C9FA1146FFF7F7FF06F04CF931
:1001D00000F0E7FA03B4FFF7F2FF03BC05F064FF99
:1001E000224B19680868B0E8F00F80F30988BFF364
:1001F0006F8F4FF0000080F311884EF00D0E7047A6
:100200000000000006480068006880F3088862B6B5
:1002100061B6BFF34F8FBFF36F8F00DF00BF00BF2A
:1002200008ED00E0EFF30980BFF36F8F0F4B1A6802
:1002300020E9F00F106008B54FF0500080F31188EE
:10024000BFF34F8FBFF36F8F07F0A2FA4FF000009C
:1002500080F31188BDE8084019680868B0E8F00F1D
:1002600080F30988BFF36F8F704700BF90000020B4
:10027000EFF30580704700000948804709480047B0
:10028000FEE7FEE7FEE7FEE7FEE7FEE7FEE7FEE746
:10029000FEE7FEE704480549054A064B70470000A3
:1002A000194F000831010008A85D0020A863002054
:1002B000A85F0020A85F0020704700000FB4044929
:1002C00010B503AA029800F0D5F910BC5DF814FB34
:1002D000780000202DE9F0410E46044600202062FF
:1002E0002046E168884730B3252805D0D4E90121AC
:1002F0009047206A401CF2E7E168204600278847C3
:10030000050018D0A5F14100192802D820354FF476
:1003100000673246294620462760FFF743FF40B179
:10032000012804D0F61D26F007060836D8E7361D4A
:10033000D6E72846DAE7206ABDE8F08170B50C46BA
:100340000546012A05D02878800600D5EA690023F1
:1003500002E0012305E05B1C934202D2E05C00282E
:10036000F9D1A869E618C01AA861286A1844286259
:100370002846AFF3008004E0D5E9012114F8010B11
:100380009047B442F8D32846AFF3008070BD000018
:100390002DE9F0410646002410687529314616A55E
:1003A00010D0AFF30080002802DA404213A507E026
:1003B00031688A0701D512A502E0490704D511A5C5
:1003C000012401E0AFF3008000210A2206F1240796
:1003D00009E0B0FBF2FCB0FBF2F302FB1C00303092
:1003E00078541846491C0028F3D123462A46304643
:1003F000BDE8F04100F0B7B8000000002D0000009B
:100400002B0000002000000070B504460D46214678
:100410001068AFF300802188090502D50F4A7A449D
:1004200002E00E4A7A440E32002104F1240305E072
:1004300000F00F060009965D5E54491C0028F7D1B4
:1004400020780023000704D5702D02D009B10223C3
:1004500011322046BDE8704000F085B852A300007C
:10046000032A40F2308010F0030C00F0158011F8E0
:10047000013BBCF1020F624498BF11F801CB00F8B8
:10048000013B38BF11F8013BA2F1040298BF00F80C
:1004900001CB38BF00F8013B11F0030300F0FC80F2
:1004A000083AC0F0088051F8043B083A51F804CBF0
:1004B000A0E80810F5E7121D5CBF51F8043B40F8B6
:1004C000043BAFF30080D20724BF11F8013B11F8C1
:1004D00001CB48BF11F8012B24BF00F8013B00F805
:1004E00001CB48BF00F8012B704702F0FF0343EA3D
:1004F000032242EA024200F003B94FF0000200B5C5
:10050000134694469646203922BFA0E80C50A0E836
:100510000C50B1F12001BFF4F7AF090728BFA0E8E4
:100520000C5048BF0CC05DF804EB890028BF40F8B0
:10053000042B08BF704748BF20F8022B11F0804FF2
:1005400018BF00F8012B704770477047704770471D
:1005500010B500F0F5F8006810BD10B5044600F0C5
:10056000EFF8046010BD2DE9F0470D46994692461C
:10057000044600F124080168880604D5E06921F0EA
:100580001001216000E00120A84201DD471B00E0CE
:100590000027A1697A1902EB0900081AA0612078E6
:1005A000C00602D42046AFF30080002608E0D4E95C
:1005B00001211AF806009047206A401C761C206230
:1005C0004E45F4DB2078C0060AD52046AFF3008004
:1005D00006E0D4E9012130209047206A401C2062C7
:1005E000381EA7F10107F4DC07E0D4E9012118F86F
:1005F00005009047206A401C2062281EA5F10105D5
:10060000F3DC2046AFF300802078000602D50220FC
:10061000BDE8F0870120FBE701694A1C0261087808
:10062000704700B58FB0CDE9013100210591054932
:100630007944CDE9031011466846FFF74BFE0FB031
:1006400000BD0000E5FFFFFF10B5436913B1AFF334
:10065000008001E0FFF772FE012010BD127800F16A
:1006600024010A7000224A700122EDE711684FF060
:10067000FF32E9E7074B70B50D467B44FFF7D1FF2A
:100680000446284600F060F810B14FF0FF3070BD0E
:10069000204670BD935D000010B5203AC0F00B807D
:1006A000B1E81850203AA0E81850B1E81850A0E876
:1006B0001850BFF4F5AF5FEA027C24BFB1E81850D0
:1006C000A0E8185044BF18C918C0BDE810405FEA40
:1006D000827C24BF51F8043B40F8043B08BF7047BC
:1006E000D20728BF31F8023B48BF11F8012B28BFC1
:1006F00020F8023B48BF00F8012B70474FF0000282
:100700000429C0F0128010F0030C3FF4F8AECCF1D5
:10071000040CBCF1020F18BF00F8012BA8BF20F891
:10072000022BA1EB0C01FFF7EABE5FEAC17C24BFFC
:1007300000F8012B00F8012B48BF00F8012B70478F
:1007400000487047485D0020007B00F08000704743
:1007500000487047485D00207546FFF7F9FFAE4638
:1007600005006946534620F00700854618B020B5BD
:10077000FFF790FDBDE820404FF000064FF0000766
:100780004FF000084FF0000B21F00701AC46ACE839
:10079000C009ACE8C009ACE8C009ACE8C0098D46A6
:1007A00070470446AFF300802046FFF713FD002991
:1007B000816802D041F0010101E021F00101816076
:1007C000704700000D4910B5884202D1012144153F
:1007D0000AE00B49884202D10121041504E00949CD
:1007E00088420AD10121CC03204603F0F7FF2046BE
:1007F000BDE81040002103F0F1BF10BD002401400E
:1008000000280140003C014001460020896849075A
:1008100000D501207047C06C80B2704702460020AE
:1008200012680A4200D00120704701460020896802
:10083000090700D50120704710B542680E4B0C79AE
:100840001A400B6842EA04221343436082680B4B50
:100850001A40D1E9024323434C7942EA440213434C
:100860008360C26A097C22F47002491EC9B242EA5E
:100870000151C16210BD0000FFFEF0FFFDF7F1FF66
:1008800070B5072609290AD9C568A1F10A0404EB45
:100890004404A640B543A3401D43C56007E0056975
:1008A00001EB4104A640B543A3401D4305611F234E
:1008B000072A09D2446B521E02EB820293409C43EA
:1008C00091400C43446370BD0D2A09D2046BD21FC2
:1008D00002EB820293409C4391400C43046370BD41
:1008E000C46A0D3A02EB820293409C4391400C4350
:1008F000C46270BD816841F00801816070470029C1
:10090000816802D041F4A00101E021F4A0018160DE
:100910007047816841F004018160704700F0DEB9E2
:1009200030B587B001214FF4017003F04BFF4FF455
:10093000004003F025FF0220ADF8140000248DF8DC
:10094000174005A9164800F017F9164D2846FFF77D
:1009500039FF4FF46020CDE9020401208DF80440F6
:100960008DF8100000948DF8054069462846FFF781
:1009700063FF01212846FFF71AFF2846FFF7BAFF59
:100980002846FFF752FF0028FAD12846FFF7C1FF9B
:100990002846FFF739FF0028FAD107B030BD000024
:1009A0000008014000240140FEE7704770B505468D
:1009B0004FF43026304600F059F8042811D1094C84
:1009C000206940F0020020616561206940F040002C
:1009D0002061304600F04AF8216941F6FD7211406D
:1009E000216170BD0020024008490420CA68D20776
:1009F00001D001207047CA68520701D50220704714
:100A0000C968C906FBD503207047000000200240DA
:100A10000248016941F080010161704700200240F5
:100A2000F0B506464FF400570D46384600F01EF864
:100A300004280CD1064C206940F00100206135806B
:100A4000384600F013F82169BA1E11402161F0BD4B
:100A50000020024003480249416003494160704759
:100A60002301674500200240AB89EFCD00B5034666
:100A7000FFF7BAFF02E0FFF7B7FF5B1E012803D0C4
:100A8000002B00D1052000BD002BF4D1FAE70000B7
:100A90008000A0F1C0400029016802D041F00101AE
:100AA00001E0024A1140016070470000FEFF0F00A4
:100AB00010B5D0E901121143D0E903231A431143C1
:100AC0004269114382691143C2691143026A1143A9
:100AD000426A1143826A1143C26A1143026B114395
:100AE00002689200A2F1C04211608168082907D112
:100AF00001688900A1F1C0410A6842F040020A6021
:100B0000416BD1E9002342EA03128B688C891B02F6
:100B100043EA04431A430B8A42EA03520B7D896974
:100B200042EA03620A4301688900A1F1C0414A60B8
:100B3000C16AB1F5804F08D000686FF07041800045
:100B4000A0F1C040C0F8041110BD816BD1E90023B1
:100B500042EA03128B680C8A1B0243EA04531A43CD
:100B60000B7D896942EA036200680A438000A0F1B4
:100B7000C040C0F8042110BDF0B5CC78002204F0CC
:100B80000F03E40601D58C7823430C784FF00F0C4B
:100B900014F0FF0F4FF0010E1BD005680E880EFAFF
:100BA00002F42640A64210D196000CFA06F725EA78
:100BB000070703FA06F5CE783D43282E02D0482ECB
:100BC00002D002E0446100E00461521C082AE5D32F
:100BD00005600A88FF2A1CD94468002202F1080631
:100BE0000EFA06F50E882E40AE420ED196000CFA93
:100BF00006F7BC4303FA06F7CE783C43282E00D113
:100C00004561CE78482E00D10561521C082AE5D3F3
:100C10004460F0BD0161704710B50B4C01460723DD
:100C200001222046FFF72CFE01212046FFF767FE38
:100C300002212046FFF7F2FD0028F9D02046BDE84A
:100C40001040FFF7E8BD00000024014030B40C461E
:100C500001461546500700D0012000EBD50068433F
:100C6000C2B208784B78812809D3402B07D3FF2BD9
:100C700005D0FF2803D07F2B0CD2403B0BE0002394
:100C8000184603E05B1C04F8010BDBB29342F9D376
:100C900030BC7047413B8138D9B2C0B2C0EB401381
:100CA00003EB801001EB400050430A490C2D0AD0A1
:100CB000102D0BD0182DEBD1D1F81910014420467E
:100CC00030BC05F0A7B9D1F80910F7E7D1F8111039
:100CD000F4E7000012010020FEE7000038B5012112
:100CE000082003F06FFD6020ADF8000010208DF8A3
:100CF00003000320054C8DF8020069462046FFF7EB
:100D00003BFFC0212046FFF785FF38BD000C0140A6
:100D10002DE9F04105461448016821F07041016059
:100D2000016841F040510160104E0027C6F89871EB
:100D30003C464FF00108E809C6F89C016806050E1C
:100D4000022005F02BFBC6F89881022005F026FB57
:100D5000C6F89871022005F021FB641CE4B2082C4F
:100D6000E9D3BDE8F08100000020014000002442EA
:100D700070B50D48016821F070410160016841F0D3
:100D800040510160094C0120C4F89C01C4F898014D
:100D9000042004F5CC7405F001FB002565600420F7
:100DA00005F0FCFA256070BD0020014000002442DF
:100DB0000E4810B5016821F070410160016841F0F2
:100DC000405101600A4C0020C4F89801C4F89C010D
:100DD000042004F5CC7405F0E1FA01202060606085
:100DE000BDE81040042005F0D9BA00000020014001
:100DF0000000244270B513480024016821F07041BE
:100E00000160016841F0004101600F4D0126C5F805
:100E10009C61304605F0C2FAC5F89861012005F0E2
:100E2000BDFA07E0641CE4B2FA2C03D9FFF7C0FF57
:100E3000012070BDD5F81C010028F3D1C5F8980138
:100E400070BD000000200140000024422DE9F04365
:100E5000174F0646002438887D884543B888A0F59A
:100E6000D041043902D1B879012807D000210846C1
:100E700003F05CFA03F00CFC0E4815E00020B8719A
:100E80004FF02A09A7F80A904FF02B08A7F80C801A
:100E9000014603F04BFA0120B871A7F80A80A7F8C1
:100EA0000C90E7E70680641CAC42FBD3BDE8F083FE
:100EB000040100200008006C2DE9F04F4A492A2364
:100EC0002B24898845F2105A4FF4305B4FF4285E8A
:100ED0004FF448754FF0F00C49F241394FF4A077C8
:100EE00045F210364FF4F07280B13F484FF00108E0
:100EF000494580F806800780A0F802C001D0B142C1
:100F00003ED12C2505814381848157E036484FF03E
:100F10000008494580F80680A0F800C0478006D048
:100F2000A1F5D04CBCF1040C01D0B1420CD12C2560
:100F300005814381A1F5D0438481043B01D0B142B6
:100F400044D10780428041E0514507D1A0F808B064
:100F5000A0F80AE04FF42C5181810EE0A1F5C856AB
:100F6000633E06D0222101812021418121218181FE
:100F70002CE02C210181448183810280458025E081
:100F8000A1F5D04CBCF1040C09D051450BD1A0F80F
:100F900008B0A0F80AE04FF42C53838121E02C25FF
:100FA0000581448109E0A1F5C85CBCF1630C12D055
:100FB000222303812123438120238381A1F5D04370
:100FC000043B01D0B14201D102804780BDE8F04F1F
:100FD000002003F0D7B84FF02C0CA0F808C04381D4
:100FE000848105804280E9E7040100202DE9FE4F5D
:100FF0000026A2EB000882465F1A701E354689461D
:10100000B8F1000F02DD4FF0010102E003D14FF013
:101010000001019102E0C8F100080190002F02DDFB
:101020004FF0010002E003D14FF00000009002E019
:10103000C7F1000700904046B84501DD044600E0D6
:101040003C46601C4FF0000B029015E01FFA89F13E
:101050001FFA8AF000F016F846443D44A64202DD2D
:101060000199361B8A44A54202DD00992D1B894453
:101070000BF101001FFA80FB02998B45E6DDBDE80C
:10108000FE8F000000B503F051F903F001FB0248A8
:1010900002490088088000BD2C0000200008006C78
:1010A0002DE9FC4F80460024154603200F46A0EB97
:1010B000450649E0781B81B208EB040A01901FFA4B
:1010C0008AF0FFF7DFFF381B81B208EB05090090BB
:1010D0001FFA89F0FFF7D6FF07EB040B1FFA8BF11D
:1010E0001FFA89F0FFF7CEFF07EB05091FFA89F118
:1010F0001FFA8AF0FFF7C6FFA8EB040A1FFA89F16E
:101100001FFA8AF0FFF7BEFFA8EB05091FFA8BF163
:101110001FFA89F0FFF7B6FF019881B21FFA8AF033
:10112000FFF7B0FF009881B21FFA89F0FFF7AAFF1E
:10113000641C002E03DA06EB8406B61D04E0601B77
:1011400006EB80066D1E0A36AC42B3DDBDE8FC8FAF
:101150002DE9F04FDFF80C81934642460B46B8F874
:1011600004500C0ADFF800A19189060A5289A5F5FE
:1011700013470AF10209413F18D0A5F5A647103FD1
:1011800014D0B7F500771CD04746A5F5C85CBE79EA
:101190003F883F1A7F1EBCF1630C27D0A5F5D04CC9
:1011A000BCF1040C3AD0012E4AD04AE0AAF8002043
:1011B0004A46A9F80060C0B2A9F80000AAF80010D9
:1011C0003AE0AAF80020A9F80060521CAAF8002012
:1011D000C0B2A9F80000AAF80010A9F80040491C04
:1011E000AAF80010D8B2A9F8000033E006B9B8B2E6
:1011F000AAF80020050A4A46A9F80050C7B2A9F883
:101200000070A9F80050C0B2A9F80000AAF80010B8
:10121000A9F80040D8B2A9F800000DE0012E00D1D5
:10122000B8B2AAF80020050A4A46A9F80050C0B290
:10123000A9F80000AAF800101480D8B2108009E0C4
:10124000B8B20146104603F02DFAB8F80C00194662
:1012500003F028FAB8F80810AAF80010A9F800B0AE
:10126000BDE8F08F04010020FE07006C2DE9F84373
:101270001F4D1F468046AB88089EA3F5D04004381A
:1012800002D1A879012807D0A2EB0800401C85B242
:101290000C46DFF8609028E02B880846991A002455
:1012A000AC713A462A24A3EB08036C812B27491E14
:1012B0005B1EAF8189B29BB20096FFF7D7FF01207A
:1012C000A8716F81AC81BDE8F8832146404603F0E8
:1012D0002DF803F0DDF90020494602E00E80401CA5
:1012E00080B2A842FAD3641CA4B2BC42EDD9EAE7AA
:1012F000040100200008006C2DE9F04F01210E02CE
:101300009FB0304603F046FA01214FF4B47003F069
:1013100059FA0127ADF83C704FF010088DF83F8066
:1013200003248DF83E400FA9FE48FFF725FC4CF240
:101330003370ADF83C0018258DF83F508DF83E40D5
:101340000FA9F948FFF718FC4FF68070ADF83C0084
:101350008DF83F508DF83E400FA9F448FFF70CFC84
:1013600041F20100ADF83C008DF83F508DF83E4051
:101370000FA9EF48FFF700FC00200F21CDE918016D
:101380001A901B901C901D901090CDE91104CDE98E
:101390001607149006211590CDE90010CDE902083A
:1013A000139004903101CDE9080106900590079053
:1013B0008900CDE90A010C9017A80D9010A80E9095
:1013C0006846FFF775FB01210620FFF761FB32201D
:1013D00004F0C8FF002002F0ABFED64DD64C49F217
:1013E0004139A88046F6040A45F2103B45F21057F1
:1013F0004FF6FF78FF2804D3404502D0B0F5134FD5
:1014000070D1D320208002F089FEA88002F086FEF1
:10141000A88002F083FE08EA00204146A88002F07E
:101420007DFEAA881043A88048455BD0BF2020805D
:1014300002F074FEA88002F071FEA88002F06EFE39
:10144000A88002F06BFE01EA0020A88002F066FE90
:10145000AA881043A880504544D0D420208002F0B0
:101460005DFEA88002F05AFEA88002F057FE01EA55
:101470000020A88002F052FEAA881043A880584598
:1014800030D04FF45A40208002F048FEA8804FF43C
:101490005B40208002F042FE01EA0020A8804FF469
:1014A0005C40208002F03AFEAA881043A880B0F584
:1014B000004F7DD0B84215D0A120208002F02EFE32
:1014C000A88002F02BFE01EA0020A88002F026FE90
:1014D000A9880843A0F5AE41A880613902D141F640
:1014E0006310A880A98895A0FEF7E8FEA888924D11
:1014F000AD1C48457ED1CF20208000202880C1200F
:10150000288030202880ED2020806420288003203F
:1015100028801220288081202880E82020808520B3
:101520002880102028807A202880CB202080392015
:1015300028802C2028800020288034202880022029
:101540002880F720208020202880EA20208000208A
:1015500028802880C02020801B202880C120208057
:1015600001202880C5202080302028802880C720A6
:101570002080B720288036202080482028803A20EC
:10158000208055202880B1202080002028801A202B
:101590002880B62020800A202880A2202880F220DF
:1015A000208000202880262020800120288000E044
:1015B00051E0E02020800F2028802A202880282049
:1015C0002880082028800E20288008202880542089
:1015D0002880A9202880432028800A2028800F20E6
:1015E000288000202880288028802880E1202080F2
:1015F000002000E031E02880152028801720288076
:101600000720288011202880062028802B20288071
:10161000562028803C202880052028801020288003
:101620000F2028803F20288028800F2028802B2012
:101630002080002028802880012028803F202880CA
:101640002A2020800020288028802880EF202880E1
:101650001120208084E0AF8044E7504576D11120EE
:101660002080142004F07EFED020208007202880D7
:10167000422028801D202880D12020800020288022
:101680001A20288009202880D2202080012028804C
:1016900022202880C0202080102028803B20288005
:1016A000002028800220288011202880C52020804A
:1016B00003202880C8202080002028802520288022
:1016C0002120288005202880002028800A202880CA
:1016D0006520288025202880772028805020288099
:1016E0000F20288000202880F820208001202880DA
:1016F000FE202080002028800220288020202080BA
:1017000036202080082028803A20208055202880FC
:101710002B202080002028802880012028803F2046
:10172000288014E0000C0140001401400018014022
:101730000020014004010020FE07006C204C4344BF
:101740002049443A25780D0A000000000EE02A20C6
:10175000208000202880288001202880DF20288009
:10176000782004F0FFFD292001F02DBC58457DD1E3
:10177000ED20208001202880FE202880EE2020807F
:10178000DE20288021202880F12020800120288050
:10179000DF20208010202880C42020808F202880F7
:1017A000C620208000202880E220288028802880F1
:1017B000BF202080AA202880B02020800D202880F3
:1017C000002028800D2028800020288011202880DB
:1017D00000202880192028800020288021202880AF
:1017E000002028802D202880002028803D2028806F
:1017F000002028805D202880002028805D2028800F
:1018000000202880B120208080202880002028808F
:101810008B20288000202880962028800020288087
:10182000B2202080002028802880022028800020EC
:1018300028800320288000202880B32020800020DA
:101840002880288028802880288028802880288058
:101850002880288028802880288028802880288048
:101860002880288028802880288000E0FEE32880C7
:1018700028802880B42020808B2028800020288089
:101880009620288000202880A12028800020288001
:10189000B520208002202880002028800320288076
:1018A000002028800420288000202880B620208066
:1018B000002028802880B7202080002028802880D1
:1018C0003F202880002028805E202880002028805B
:1018D00064202880002028808C20288000202880F8
:1018E000AC20288000202880DC2028800020288050
:1018F00070202880002028809020288000202880C8
:10190000EB20288000202880DC20288000202880F0
:10191000B8202080002028802880288028802880E7
:10192000288028802880BA20208024202880002039
:10193000288028802880C120208020202880002026
:1019400028805420288000202880FF202880002024
:101950002880C22020800A2028800020288004209F
:10196000288000202880C32020803C202880002060
:1019700028803A20288000202880392028800020D4
:10198000288037202880002028803C2028800020C4
:1019900028803620288000202880322028800020BF
:1019A00028802F202880002028802C2028800020BC
:1019B00028802920288000202880262028800020B8
:1019C00028802420288000202880242028800020AF
:1019D000288023202880002028803C202880002088
:1019E000288036202880002028803220288000206F
:1019F00028802F202880002028802C20288000206C
:101A00002880292028800020288026202880002067
:101A1000288024202880002028802420288000205E
:101A200028802320288000202880C4202080622055
:101A300028800020288005202880002028808420FD
:101A4000288000202880F02028800020288018206E
:101A5000288000202880A4202880002028801820AA
:101A600028800020288050202880002028800C20FA
:101A7000288000202880172028800020288095209A
:101A8000288000202880F320288000202880E6205D
:101A9000288000202880C520208032202880002037
:101AA000288044202880002028806520288000206D
:101AB0002880762028800020288088202880002008
:101AC0002880C62020802020288000202880172001
:101AD0002880002028800120288000202880C7201E
:101AE000208000202880288028802880C82020800E
:101AF00000202880288028802880C920208000207D
:101B00002880288028802880288028802880288095
:101B10002880288028802880288028802880288085
:101B2000E020208016202880002028801C2028808B
:101B3000002028802120288000202880362028802E
:101B400000202880462028800020288052202880DD
:101B50000020288064202880002028807A20288087
:101B6000002028808B202880002028809920288031
:101B700000202880A820288000202880B9202880E4
:101B800000202880C420288000202880CA202880A7
:101B900000202880D220288000202880D92028807A
:101BA00000202880E020288000202880F320288042
:101BB00000202880E1202080162028800020288016
:101BC0001C202880002028802220288000202880B7
:101BD000362028800020288045202880002028806A
:101BE000522028800020288064202880002028801F
:101BF0007A202880002028808B20288000202880C0
:101C00009920288000202880A82028800020288073
:101C1000B920288000202880C42028800020288027
:101C2000CA20288000202880D220288000202880F8
:101C3000D820288000202880E020288000202880CC
:101C4000F320288000202880E220208005202880A2
:101C5000002028800B202880002028801B2028803E
:101C600000202880342028800020288044202880DC
:101C7000002028804F202880002028806120288094
:101C80000020288079202880002028808820288033
:101C9000002028809720288000202880A6202880E7
:101CA00000202880B720288000202880C22028809B
:101CB00000202880C720288000202880D12028806C
:101CC00000202880D620288000202880DD20288041
:101CD00000202880F320288000202880E320208016
:101CE00005202880002028800A20288000202880C5
:101CF0001C20288000202880332028800020288075
:101D0000442028800020288050202880002028801F
:101D100062202880002028807820288000202880C9
:101D20008820288000202880972028800020288074
:101D3000A620288000202880B72028800020288026
:101D4000C220288000202880C720288000202880EA
:101D5000D120288000202880D520288000202880BD
:101D6000DD20288000202880F32028800020288083
:101D7000E420208001202880002028800120288065
:101D80000020288002202880002028802A20288007
:101D9000002028803C202880002028804B2028809C
:101DA000002028805D202880002028807420288042
:101DB00000202880842028800020288093202880EC
:101DC00000202880A220288000202880B32028809E
:101DD00000202880BE20288000202880C420288061
:101DE00000202880CD20288000202880D320288033
:101DF00000202880DD20288000202880F3202880F3
:101E000000202880E520208000202880288028804D
:101E10002880022028800020288029202880002077
:101E200028803C202880002028804B20288000200B
:101E300028805D20288000202880742028800020B1
:101E4000288084202880002028809320288000205B
:101E50002880A220288000202880B320288000200D
:101E60002880BE20288000202880C42028800020D0
:101E70002880CD20288000202880D32028800020A2
:101E80002880DC20288000202880F3202880002063
:101E90002880E620208011202880002028803420FF
:101EA0002880002028805620288000202880762046
:101EB0002880002028807720288000202880662025
:101EC00028800020288088202880002028809920D1
:101ED000288000202880BB2028800020288099208E
:101EE0002880002028806620288000202880552017
:101EF0002880002028805520288000202880452028
:101F0000288000202880432028800020288044202A
:101F1000288000202880E720208032202880002090
:101F200028805520288000202880762028800020C6
:101F300028806620288000202880672028800020B4
:101F40002880672028800020288087202880002083
:101F500028809920288000202880BB20288000200D
:101F60002880992028800020288077202880002041
:101F700028804420288000202880562028800020A7
:101F800028802320288000202880332028800020DB
:101F900028804520288000202880E82020800020FC
:101FA0002880288099202880002028808720288069
:101FB0000020288088202880002028807720288002
:101FC0000020288066202880002028808820288003
:101FD00000202880AA20288000202880BB2028807C
:101FE00000202880992028800020288066202880D2
:101FF0000020288055202880002028805520288017
:102000000020288044202880002028804420288028
:10201000002028805520288000202880E92020806A
:10202000AA20288000202880288028802080AA20BC
:102030002880CF20208000202880288028802880A9
:102040002880288028802880288028802880288050
:1020500028802880288028802880F0202080002068
:102060002880502028800020288000E02CE0288054
:102070002880F320208000202880F920208006205E
:1020800028801020288029202880002028803A20BD
:1020900020805520288011202080642004F062F9DF
:1020A0002920208035202080002028805120208079
:1020B000FF202880532020802C202880552020803D
:1020C000822028802C20FCE3B8427DD14FF470435D
:1020D0005521184602F0E6FA4FF20105AA212846DA
:1020E00002F0E0FA6E1C5221304602F0DBFAAF1C1F
:1020F0000821384602F0D6FA4FF204090121484679
:1021000002F0D0FA0D214FF4304002F0CBFA0D214D
:102110004BF2010002F0C6FA0D214BF2020002F070
:10212000C1FA4FF4364A3421504602F0BBFA34214A
:102130004BF2016002F0B6FA34214BF2026002F079
:10214000B1FA4FF4314B0D21584602F0ABFA0D2194
:102150004BF2011002F0A6FA0D214BF2021002F030
:10216000A1FA34214FF4374002F09CFA34214BF2AB
:10217000017002F097FA34214BF2027002F092FAE9
:1021800000214FF4324002F08DFA00214BF2012081
:1021900002F088FA00214BF2022002F083FA242197
:1021A0004FF4384002F07EFA24214BF6010002F091
:1021B00079FA24214BF6020002F074FA01214FF45F
:1021C0003F4002F06FFA00E0FEE30F214FF433408E
:1021D00002F068FA0F214BF2013002F063FA0F218E
:1021E0004BF2023002F05EFA34214FF4394002F033
:1021F00059FA34214BF6011002F054FA34214BF60F
:10220000021002F04FFA08214FF4354002F04AFA6A
:1022100008214BF2015002F045FA08214BF202501E
:1022200002F040FA03214FF4424002F03BFA24212D
:102230004FF43A4002F036FA24214BF6012002F026
:1022400031FA24214BF6022002F02CFA00214FF43F
:102250003C4002F027FA78214BF6014002F022FAC6
:1022600000214BF6024002F01DFA00214FF43D40E0
:1022700002F018FA78214BF6015002F013FA00210F
:102280004BF6025002F00EFA00214FF43E4002F0ED
:1022900009FA64214BF6016002F004FA00214FF4C0
:1022A000514002F0FFF933214DF2011002F0FAF92A
:1022B00000214DF2021002F0F5F934214DF2031025
:1022C00002F0F0F900214DF2041002F0EBF93A218E
:1022D0004DF2051002F0E6F900214DF2061002F071
:1022E000E1F94A214DF2071002F0DCF900214DF22C
:1022F000081002F0D7F95C214DF2091002F0D2F972
:1023000000214DF20A1002F0CDF981214DF20B109F
:1023100002F0C8F900214DF20C1002F0C3F9A62119
:102320004DF20D1002F0BEF900214DF20E1002F038
:10233000B9F9E5214DF20F1002F0B4F901214DF287
:10234000101002F0AFF913214DF2111002F0AAF9AA
:1023500001214DF2121002F0A5F954214DF2131093
:1023600002F0A0F901214DF2141002F09BF9822134
:102370004DF2151002F096F901214DF2161002F0FF
:1023800091F9CA214DF2171002F08CF902214DF299
:10239000181002F087F900214DF2191002F082F9AD
:1023A00002214DF21A1002F07DF901214DF21B10AD
:1023B00002F078F902214DF21C1002F073F9342179
:1023C0004DF21D1002F06EF902214DF21E1002F0C6
:1023D00069F967214DF21F1002F064F902214DF2F4
:1023E000201002F05FF984214DF2211002F05AF919
:1023F00002214DF2221002F055F9A4214DF22310D2
:1024000002F050F902214DF2241002F04BF9B721ED
:102410004DF2251002F046F902214DF2261002F08D
:1024200041F9CF214DF2271002F03CF902214DF283
:10243000281002F037F9DE214DF2291002F032F9AE
:1024400002214DF22A1002F02DF9F2214DF22B104B
:1024500002F028F902214DF22C1002F023F9FE219E
:102460004DF22D1002F01EF903214DF22E1002F054
:1024700019F910214DF22F1002F014F903214DF239
:10248000301002F00FF933214DF2311002F00AF949
:1024900003214DF2321002F005F96D214DF2331097
:1024A00002F000F900214FF4524002F0FBF8332112
:1024B0004DF2012002F0F6F800214DF2022002F068
:1024C000F1F834214DF2032002F0ECF800214DF236
:1024D000042002F0E7F83A214DF2052002F0E2F87C
:1024E00000214DF2062002F0DDF84A214DF20720CE
:1024F00002F0D8F800214DF2082002F0D3F85C2158
:102500004DF2092002F0CEF800214DF20A2002F02F
:10251000C9F881214DF20B2002F0C4F800214DF2E0
:102520000C2002F0BFF8A6214DF20D2002F0BAF8FF
:1025300000214DF20E2002F0B5F8E5214DF20F20FA
:1025400002F0B0F801214DF2102002F0ABF8132197
:102550004DF2112002F0A6F801214DF2122002F0F6
:10256000A1F854214DF2132002F09CF801214DF204
:10257000142002F097F882214DF2152002F092F813
:1025800001214DF2162002F08DF8CA214DF21720DC
:1025900002F088F802214DF2182002F083F80021A1
:1025A0004DF2192002F07EF802214DF21A2002F0BD
:1025B00079F801214DF21B2002F074F802214DF24E
:1025C0001C2002F06FF834214DF21D2002F06AF851
:1025D00002214DF21E2002F065F867214DF21F2006
:1025E00002F060F802214DF2202002F05BF8842115
:1025F0004DF2212002F056F802214DF2222002F085
:1026000051F8A4214DF2232002F04CF802214DF2A2
:10261000242002F047F8B7214DF2252002F042F8BD
:1026200002214DF2262002F03DF8CF214DF2272065
:1026300002F038F802214DF2282002F033F8DE21B2
:102640004DF2292002F02EF802214DF22A2002F04C
:1026500029F8F2214DF22B2002F024F802214DF24C
:102660002C2002F01FF8FE214DF22D2002F01AF866
:1026700003214DF22E2002F015F810214DF22F20EB
:1026800002F010F803214DF2302002F00BF8332154
:102690004DF2312002F006F803214DF2322002F013
:1026A00001F86D214DF2332001F0FCFF00214FF4C1
:1026B000534001F0F7FF33214DF2013001F0F2FFFA
:1026C00000214DF2023001F0EDFF34214DF20330D4
:1026D00001F0E8FF00214DF2043001F0E3FF3A2160
:1026E0004DF2053001F0DEFF00214DF2063001F021
:1026F000D9FF4A214DF2073001F0D4FF00214DF2FD
:10270000083001F0CFFF5C214DF2093001F0CAFF23
:1027100000214DF20A3001F0C5FF81214DF20B304E
:1027200001F0C0FF00214DF20C3001F0BBFFA621EB
:102730004DF20D3001F0B6FF00214DF20E3001F0E8
:10274000B1FFE5214DF20F3001F0ACFF01214DF258
:10275000103001F0A7FF13214DF2113001F0A2FF5C
:1027600001214DF2123001F09DFF54214DF2133042
:1027700001F098FF01214DF2143001F093FF822106
:102780004DF2153001F08EFF01214DF2163001F0AF
:1027900089FFCA214DF2173001F084FF02214DF26A
:1027A000183001F07FFF00214DF2193001F07AFF5F
:1027B00002214DF21A3001F075FF01214DF21B305C
:1027C00001F070FF02214DF21C3001F06BFF34214B
:1027D0004DF21D3001F066FF02214DF21E3001F076
:1027E00061FF67214DF21F3001F05CFF02214DF2C5
:1027F000203001F057FF84214DF2213001F052FFCB
:1028000002214DF2223001F04DFFA4214DF2233080
:1028100001F048FF02214DF2243001F043FFB721BF
:102820004DF2253001F03EFF02214DF2263001F03D
:1028300039FFCF214DF2273001F034FF02214DF254
:10284000283001F02FFFDE214DF2293001F02AFF60
:1028500002214DF22A3001F025FFF2214DF22B30FA
:1028600001F020FF02214DF22C3001F01BFFFE2170
:102870004DF22D3001F016FF03214DF22E3001F004
:1028800011FF10214DF22F3001F00CFF03214DF20A
:10289000303001F007FF33214DF2313001F002FFFB
:1028A00003214DF2323001F0FDFE6D214DF2333047
:1028B00001F0F8FE00214FF4544001F0F3FE332103
:1028C00000E080E34DF2014001F0ECFE00214DF20A
:1028D000024001F0E7FE34214DF2034001F0E2FE38
:1028E00000214DF2044001F0DDFE3A214DF2054099
:1028F00001F0D8FE00214DF2064001F0D3FE4A213E
:102900004DF2074001F0CEFE00214DF2084001F0EB
:10291000C9FE5C214DF2094001F0C4FE00214DF2D8
:102920000A4001F0BFFE81214DF20B4001F0BAFEDA
:1029300000214DF20C4001F0B5FEA6214DF20D40F4
:1029400001F0B0FE00214DF20E4001F0ABFEE5219A
:102950004DF20F4001F0A6FE01214DF2104001F0B2
:10296000A1FE13214DF2114001F09CFE01214DF218
:10297000124001F097FE54214DF2134001F092FEF7
:1029800001214DF2144001F08DFE82214DF21540DF
:1029900001F088FE01214DF2164001F083FECA21AC
:1029A0004DF2174001F07EFE02214DF2184001F079
:1029B00079FE00214DF2194001F074FE02214DF222
:1029C0001A4001F06FFE00E0FFE201214DF21B40D2
:1029D00001F068FE02214DF21C4001F063FE34213B
:1029E0004DF21D4001F05EFE02214DF21E4001F04D
:1029F00059FE67214DF21F4001F054FE02214DF2B5
:102A0000204001F04FFE84214DF2214001F04AFEAA
:102A100002214DF2224001F045FEA4214DF2234057
:102A200001F040FE02214DF2244001F03BFEB721AF
:102A30004DF2254001F036FE02214DF2264001F014
:102A400031FECF214DF2274001F02CFE02214DF244
:102A5000284001F027FEDE214DF2294001F022FE40
:102A600002214DF22A4001F01DFEF2214DF22B40D1
:102A700001F018FE02214DF22C4001F013FEFE2160
:102A80004DF22D4001F00EFE03214DF22E4001F0DB
:102A900009FE10214DF22F4001F004FE03214DF2FA
:102AA000304001F0FFFD33214DF2314001F0FAFDDD
:102AB00003214DF2324001F0F5FD6D214DF233401E
:102AC00001F0F0FD00214FF4554001F0EBFD332102
:102AD0004DF2015001F0E6FD00214DF2025001F0EF
:102AE000E1FD34214DF2035001F0DCFD00214DF2F7
:102AF000045001F0D7FD3A214DF2055001F0D2FD0E
:102B000000214DF2065001F0CDFD4A214DF2075053
:102B100001F0C8FD00214DF2085001F0C3FD5C2119
:102B20004DF2095001F0BEFD00214DF20A5001F0B6
:102B3000B9FD81214DF20B5001F0B4FD00214DF2A1
:102B40000C5001F0AFFDA6214DF20D5001F0AAFD91
:102B500000214DF20E5001F0A5FDE5214DF20F5080
:102B600001F0A0FD01214DF2105001F09BFD132159
:102B70004DF2115001F096FD01214DF2125001F07D
:102B800091FD54214DF2135001F08CFD01214DF2C5
:102B9000145001F087FD82214DF2155001F082FDA5
:102BA00001214DF2165001F07DFDCA214DF2175062
:102BB00001F078FD02214DF2185001F073FD002163
:102BC0004DF2195001F06EFD02214DF21A5001F044
:102BD00069FD01214DF21B5001F064FD02214DF20F
:102BE0001C5001F05FFD34214DF21D5001F05AFDE3
:102BF00002214DF21E5001F055FD67214DF21F508C
:102C000001F050FD02214DF2205001F04BFD8421D6
:102C10004DF2215001F046FD02214DF2225001F00B
:102C200041FDA4214DF2235001F03CFD02214DF263
:102C3000245001F037FDB7214DF2255001F032FD4F
:102C400002214DF2265001F02DFDCF214DF22750EB
:102C500001F028FD02214DF2285001F023FDDE2174
:102C60004DF2295001F01EFD02214DF22A5001F0D3
:102C700019FDF2214DF22B5001F014FD02214DF20D
:102C80002C5001F00FFDFE214DF22D5001F00AFDF8
:102C900003214DF22E5001F005FD10214DF22F5071
:102CA00001F000FD03214DF2305001F0FBFC332117
:102CB0004DF2315001F0F6FC03214DF2325001F09B
:102CC000F1FC6D214DF2335001F0ECFC00214FF48A
:102CD000564001F0E7FC33214DF2016001F0E2FCC7
:102CE00000214DF2026001F0DDFC34214DF2036061
:102CF00001F0D8FC00214DF2046001F0D3FC3A2130
:102D00004DF2056001F0CEFC00214DF2066001F0AD
:102D1000C9FC4A214DF2076001F0C4FC00214DF2CC
:102D2000086001F0BFFC5C214DF2096001F0BAFCC3
:102D300000214DF20A6001F0B5FC81214DF20B60DB
:102D400001F0B0FC00214DF20C6001F0ABFCA621BB
:102D50004DF20D6001F0A6FC00214DF20E6001F075
:102D6000A1FCE5214DF20F6001F09CFC01214DF228
:102D7000106001F097FC13214DF2116001F092FCFC
:102D800001214DF2126001F08DFC54214DF21360CF
:102D900001F088FC01214DF2146001F083FC8221D6
:102DA0004DF2156001F07EFC01214DF2166001F03C
:102DB00079FCCA214DF2176001F074FC02214DF23A
:102DC000186001F06FFC00214DF2196001F06AFCFF
:102DD00002214DF21A6001F065FC01214DF21B60E9
:102DE00001F060FC02214DF21C6001F05BFC34211B
:102DF0004DF21D6001F056FC02214DF21E6001F003
:102E000051FC67214DF21F6001F04CFC02214DF294
:102E1000206001F047FC84214DF2216001F042FC6A
:102E200002214DF2226001F03DFCA4214DF223600D
:102E300001F038FC02214DF2246001F033FCB7218F
:102E40004DF2256001F02EFC02214DF2266001F0CA
:102E500029FCCF214DF2276001F024FC02214DF224
:102E6000286001F01FFCDE214DF2296001F01AFC00
:102E700002214DF22A6001F015FCF2214DF22B6087
:102E800001F010FC02214DF22C6001F00BFCFE2140
:102E90004DF22D6001F006FC03214DF22E6001F091
:102EA00001FC10214DF22F6001F0FCFB03214DF2DB
:102EB000306001F0F7FB33214DF2316001F0F2FB9D
:102EC00003214DF2326001F0EDFB6D214DF23360D4
:102ED00001F0E8FB5521184601F0E4FBAA21284641
:102EE00001F0E0FB5221304601F0DCFB08213846BE
:102EF00001F0D8FB0021484601F0D4FBCC21584614
:102F000001F0D0FB00214BF2011001F0CBFB0521B9
:102F1000504601F0C7FB70214FF4374001F0C2FB6F
:102F200070214BF2017001F0BDFB01214FF43840DC
:102F300001F0B8FB03214BF6010001F0B3FB0321C4
:102F40004BF6020001F0AEFB03214BF6030001F04B
:102F5000A9FB02214FF43C4001F0A4FB00214BF6F9
:102F6000014001F09FFB00214BF6024001F09AFB6B
:102F7000D0214FF4494001F095FB02214CF601109D
:102F800001F090FB50214CF6021001F08BFB502118
:102F90004CF6031001F086FB50214CF6041001F0B2
:102FA00081FB00214FF4545001F07CFB55214FF47C
:102FB000685001F077FB4FF488502080782003F0B0
:102FC000EDF94FF424502080FEE3A0F513414FF4B7
:102FD000E06940F23F1A4FF4274B253924D040F2E4
:102FE0000777C91E7DD04FF4887B08317AD011391C
:102FF00079D0A0F5A841083976D0A0F5A8514FF4B2
:10300000407B053971D0B1F520416FD0B1F58051C9
:103010006DD0A0F58A4131396AD0091F69D0A0F579
:10302000C851633966D0CFE747F6F001E52001F0DB
:1030300039FB3146012001F035FB4946022001F001
:1030400031FB41F23001032001F02CFB0021042070
:1030500001F028FB40F20221082001F023FB0021AF
:10306000092001F01FFB00210A2001F01BFB0021B9
:103070000C2001F017FB00210D2001F013FB0021B3
:103080000F2001F00FFB0021102001F00BFB0721A6
:10309000112001F007FB0021122001F003FB0021A9
:1030A000132001F0FFFA0021072001F0FBFA41F2A2
:1030B0009061102001F0F6FA40F22721112001F072
:1030C000F1FA9D21122001F0EDFA4FF4C8511320BE
:1030D00001F0E8FA2521292001F0E4FA0D212B2046
:1030E00009E078E034E1D9E1AFE24AE3FEE3FEE350
:1030F000FEE3FEE3FEE301F0D5FA0721302001F004
:10310000D1FA40F20331312001F0CCFA0321322010
:1031100001F0C8FA40F20621352001F0C3FA082177
:10312000362001F0BFFA40F20641372001F0BAFA2A
:103130004FF44171382001F0B5FA0721392001F030
:10314000B1FA40F202613C2001F0ACFA08213D20C6
:1031500001F0A8FA0021502001F0A4FAEF2151203B
:1031600001F0A0FA0021522001F09CFA51465320B0
:1031700001F098FA5946602001F094FA012161208B
:1031800001F090FA00216A2001F08CFA00218020E1
:1031900001F088FA0021812001F084FA00218220C8
:1031A00001F080FA0021832001F07CFA00218420C4
:1031B00001F078FA0021852001F074FA10219020A6
:1031C00001F070FA4FF4C061922001F06BFA40F206
:1031D00033110720FEE341F28F01EC2001F062FA87
:1031E00041F23421EF2001F05DFA3146012001F077
:1031F00059FA4946022001F055FA41F23001032004
:1032000001F050FA0021042001F04CFA40F20221B2
:10321000082001F047FA0021092001F043FA0021BB
:103220000A2001F03FFA01210C2001F03BFA0021B5
:103230000D2001F037FA00210F2001F033FA0021B0
:10324000102001F02FFA0721112001F02BFA0021A4
:10325000122001F027FA0021132001F023FA0121A6
:10326000072001F01FFA322003F07CF841F2904170
:10327000102001F017FA40F22721112001F012FA74
:10328000322003F06FF88A21122001F00BFA32206D
:1032900003F068F84FF4D051132001F003FA06212F
:1032A000292001F0FFF90D212B2001F0FBF932203C
:1032B00003F058F80021202001F0F4F9002121202A
:1032C00001F0F0F9322003F04DF80021302001F038
:1032D000E9F940F20461312001F0E4F940F20531EE
:1032E000322001F0DFF90021352001F0DBF940F652
:1032F0000941362001F0D6F94FF40171372001F071
:10330000D1F940F20131382001F0CCF939463920A9
:1033100001F0C8F900213C2001F0C4F940F60A216F
:103320003D2001F0BFF9322003F01CF800215020AD
:1033300001F0B8F9EF21512001F0B4F90021522039
:1033400001F0B0F95146532001F0ACF9594651E172
:103350000021084601F0A6F93146012001F0A2F94A
:103360004946022001F09EF941F23001032001F0AC
:1033700099F90021042001F095F940F2022108207A
:1033800001F090F90021092001F08CF900210A20B8
:1033900001F088F901210C2001F084F900210D20B1
:1033A00001F080F900210F2001F07CF9322002F0B9
:1033B000D9FF40F20111072001F074F9322002F028
:1033C000D1FF4FF48651102001F06CF90721112034
:1033D00001F068F95B465946122001F063F94FF499
:1033E0003061132001F05EF90021292001F05AF923
:1033F00044F210012B2001F055F90021502001F07A
:1034000051F9EF21512001F04DF90021522001F036
:1034100049F95146532001F045F94FF41C51602001
:1034200001F040F90121612001F03CF900216A20FE
:1034300001F038F90021802001F034F900218120C9
:1034400001F030F90021822001F02CF900218320C5
:1034500001F028F90021842001F024F900218520C1
:1034600001F020F91021902001F01CF90021922098
:1034700001F018F90121932001F014F91946952063
:1034800001F010F90021972001F00CF9002198209B
:1034900001F008F940F27311072084E341F21401AE
:1034A000E72001F0FFF83146012001F0FBF84FF46E
:1034B0000071022001F0F6F841F23801032001F01A
:1034C000F1F840F20221082001F0ECF80021092077
:1034D00001F0E8F800210A2001F0E4F800210C20B6
:1034E00001F0E0F800210D2001F0DCF800210F20B0
:1034F00001F0D8F80021102001F0D4F807211120A4
:1035000001F0D0F80021122001F0CCF800211320A6
:1035100001F0C8F8C82002F025FF41F290611020A8
:1035200001F0C0F840F22721112001F0BBF8322051
:1035300002F018FF0C21122001F0B4F8322002F042
:1035400011FF4FF40061132001F0ACF81121292084
:1035500001F0A8F80B212B2001F0A4F8322002F092
:1035600001FF0021202001F09DF853465146212003
:1035700001F098F80021302001F094F84FF48374A2
:103580002146312001F08EF80021322001F08AF826
:103590004FF40171352001F085F841F20A613620BF
:1035A00001F080F83946372001F07CF821463820B8
:1035B00001F078F83946392001F074F840F2024100
:1035C0003C2001F06FF840F60F413D2001F06AF811
:1035D0000021502001F066F8EF21512001F062F83F
:1035E0000021522001F05EF81946532001F05AF8EC
:1035F0004FF41C51602001F055F80121612001F0C9
:1036000051F800216A2001F04DF80021802001F0DE
:1036100049F80021812001F045F80021822001F0C5
:1036200041F80021832001F03DF80021842001F0C1
:1036300039F80021852001F035F81021902001F0A3
:1036400031F84FF4C0619220FEE33146012001F0D1
:1036500029F84946022001F025F841F23001032003
:1036600001F020F80021042001F01CF840F20721AD
:10367000082001F017F80021092001F013F80021BB
:103680000A2001F00FF800210C2001F00BF80021B6
:103690000D2001F007F800210F2001F003F814209D
:1036A00002F060FE41F2B061102000F0FBFF01214A
:1036B000112000F0F7FF0121172000F0F3FF4FF475
:1036C0009C71122000F0EEFF4FF40061132000F017
:1036D000E9FF0921292000F0E5FF09212A2000F057
:1036E000E1FF0021A42000F0DDFF0021502000F0C8
:1036F000D9FFEF21512000F0D5FF0021522000F02A
:10370000D1FF5146532000F0CDFF4FF41C516020F3
:1037100000F0C8FF0121612000F0C4FF00216A20F1
:1037200000F0C0FF0021802000F0BCFF00218120BC
:1037300000F0B8FF0021822000F0B4FF00218320B8
:1037400000F0B0FF0021842000F0ACFF00218520B4
:1037500000F0A8FF1321902000F0A4FF0021922088
:1037600000F0A0FF0321932000F09CFF5946952014
:1037700000F098FF40F27311072000F093FF322011
:1037800010E10021072000F08DFF322002F0EAFD59
:103790004FF48E71122000F085FF0121A42000F06B
:1037A00081FF0F21082000F07DFF08210A2000F092
:1037B00079FF08210D2000F075FF3946302000F018
:1037C00071FF0721312000E06EE300F06BFF40F253
:1037D0000361322000F066FF4C464946332000F07A
:1037E00061FF40F20221342000F05CFF022135200D
:1037F00000F058FF41F60F71362000F053FF3946B4
:10380000372000F04FFF0021382000F04BFF00214F
:10381000392000F047FF39463A2000F043FF0021ED
:103820003B2000F03FFF07213C2000F03BFF002140
:103830003D2000F037FF322002F094FD01210720E7
:1038400000F030FF0121172000F02CFF322002F0A1
:1038500089FD4FF4BD51102000F024FF40F21721E4
:10386000112000F01FFF4FF48F71122000F01AFF9B
:103870004FF47061132000F015FF00212A2000F0A2
:1038800011FF0A21292000F00DFF4FF49F71122033
:1038900000F008FF0021502000F004FFEF2151202C
:1038A00000F000FF0021522000F0FCFE51465320A2
:1038B00000F0F8FE4FF41C51602000F0F3FE0121EF
:1038C000612000F0EFFE00216A2000F0EBFE0021F5
:1038D000802000F0E7FE0021812000F0E3FE0021BF
:1038E000822000F0DFFE0021832004E05DE05BE148
:1038F00023E2DAE281E300F0D5FE0021842000F02B
:10390000D1FE0021852000F0CDFE1321902000F093
:10391000C9FE5946922000F0C5FE0521932000F013
:10392000C1FE0021952000F0BDFE0021972000F08F
:10393000B9FE0021982000F0B5FE3146012000F0CC
:10394000B1FE2146022000F0ADFE41F23801032015
:1039500000F0A8FE0021042000F0A4FE00210C20AD
:1039600000F0A0FE00210F2000F09CFE002120208E
:1039700000F098FE0021212000F094FE2121072074
:1039800000F090FE142002F0EDFC6121072000F011
:1039900089FE142002F0E6FC40F27311072000F0CB
:1039A00081FE142002F0DEFCA1E30021084600F0B5
:1039B00079FE0021084600F075FE0021084600F05F
:1039C00071FE0021084600F06DFE0121A42000F0E8
:1039D00069FE00E0E3E0142002F0C4FC4FF41C5444
:1039E0002146602000F05EFE40F2022529460820B4
:1039F00000F058FE4FF40571302000F053FE43F202
:103A00001571312000F04EFE40F20461322000F0CA
:103A100049FE40F61661332000F044FE42F21121C7
:103A2000342000F03FFE4FF4A851352000F03AFE5C
:103A300048F20751362000F035FE41F207413720A9
:103A400000F030FE41F20341382000F02BFE20212F
:103A5000392000F027FE1A21902000F023FE0021DB
:103A6000102000F01FFE0721112000F01BFE002196
:103A7000122000F017FE0021132000F013FE142086
:103A800002F070FC4FF4E661102000F00BFE40F2F3
:103A90003711112000F006FE142002F063FC4FF4F1
:103AA000DC71122000F0FEFD142002F05BFC4FF4EC
:103AB0007061132000F0F6FD80212A2000F0F2FD55
:103AC0004821292000F0EEFD142002F04BFC314685
:103AD000012000F0E7FD4946022000F0E3FD41F23D
:103AE0003801032000F0DEFD2946082000F0DAFD51
:103AF00000210A2000F0D6FD00210C2000F0D2FDAC
:103B000000210D2000F0CEFD30210E2000F0CAFD76
:103B10000021502000F0C6FDEF21512000F0C2FD31
:103B20000021522000F0BEFD5146532000F0BAFDA6
:103B30002146602000F0B6FD0121612000F0B2FDB9
:103B400000216A2000F0AEFD1121902000F0AAFDB6
:103B50004FF4C061922000F0A5FD40F20241932095
:103B600000F0A0FD0221942000F09CFD142002F042
:103B7000F9FB0121072000F095FD142002F0F2FB73
:103B80006121072000F08EFD40F27311072000F044
:103B900089FD0021202000F085FD0021212000F07A
:103BA00081FD222100207DE10021084600F07AFD00
:103BB0000021084600F076FD142002F0D3FB00211E
:103BC000084600F06FFD0021084600F06BFD002163
:103BD000084600F067FD0021084600F063FD012162
:103BE000A42000F05FFD142002F0BCFB4FF41C5138
:103BF000602000F057FD40F60601082000F052FD5D
:103C000040F203731946302000F04CFD01213120B1
:103C100000F048FD0421322000F044FD4FF4817192
:103C2000332000F03FFD5C465946342000F03AFD59
:103C300040F20311352000F035FD1F21362000F041
:103C400031FD1946372000F02DFD0121382000F00C
:103C500029FD0421392000F025FD1521902000F0D8
:103C600021FD4FF48261102000F01CFD40F247213D
:103C7000112000F017FD4FF4DE71122000F012FD4C
:103C80004FF46061132000F00DFD782002F06AFB14
:103C90003146012000F006FD4FF40071022000F0D3
:103CA00001FD41F23001032000F0FCFC08210A2054
:103CB00000F0F8FC00210C2000F0F4FC20210E2084
:103CC00000F0F0FC00210F2000F0ECFC002120208F
:103CD00000F0E8FC0021212000F0E4FC3D212A2036
:103CE00000F0E0FC142002F03DFB2D21292000F023
:103CF000D9FC0021502000F0D5FC4DF2EF015120FD
:103D000000F0D0FC0021522000F0CCFC51465320A2
:103D100000F0C8FC0021612000F0C4FC00216A20F2
:103D200000F0C0FC2146922000F0BCFC052193204D
:103D300000F0B8FC3146FFF7AFBB0121002000F0D6
:103D4000B1FC0A2002F00EFB41F22861102000F0C5
:103D5000A9FC0E21122000F0A5FC40F63921132009
:103D600000F0A0FC0A2002F0FDFA4021112000F032
:103D700099FC5021152000F095FC0A2002F0F2FA7F
:103D80001E21122000F08EFC0A2002F0EBFA4FF404
:103D9000B151102000F086FC42F63921132000F0CA
:103DA00081FC0A2002F0DEFA3146012000F07AFCA4
:103DB0005946022000F076FC41F23801032000F061
:103DC00071FC40F20221082000F06CFC08210A205E
:103DD00000F068FC0021302000F064FC40F2024159
:103DE000312000F05FFC4FF48371322000F05AFC68
:103DF00040F20351332000F055FC4FF4827134201F
:103E000000F050FC40F20131352000F04BFC394607
:103E1000362000F047FC40F20531372000F042FC2C
:103E20004FF40271382000F03DFC40F60B71392050
:103E300000F038FC0221412000F034FC4FF41C510A
:103E4000602000F02FFC00E0D2E00121612000F0B2
:103E500029FC4FF40471902000F024FC4FF485718C
:103E6000922000F01FFC0421932000F01BFC31463F
:103E7000A02000F017FC0121072000F013FC2121F5
:103E8000072000F00FFC2321072000F00BFC33215A
:103E9000072000F007FC40F23311072000F002FC7D
:103EA0000021A02000F0FEFB21E13021152000F0D0
:103EB000F9FB10219A2000F0F5FB2021112000F0E1
:103EC000F1FB43F22841102000F0ECFB022112200C
:103ED00000F0E8FB41F23801132000F0E3FB28205A
:103EE00002F040FA1221084600F0DCFB282002F024
:103EF00039FA43F22041102000F0D4FB43F238019C
:103F0000132000F0CFFB462002F02CFA00213020D5
:103F100000F0C8FB40F20241312000F0C3FB40F248
:103F20000731322000F0BEFB4FF44171332000F026
:103F3000B9FB0421342000F0B5FB40F201413520EB
:103F400000F0B0FB3946362000F0ACFB40F2053102
:103F5000372000F0A7FB4FF4C2631946382000F069
:103F6000A1FB1946392000F09DFB3146012000F0ED
:103F700099FB5946022000F095FB41F230010320E5
:103F800000F090FB40F60801082000F08BFB0821B0
:103F90000A2000F087FB4FF41C51602000F082FBE8
:103FA0000121612000F07EFB4FF49F71902000F012
:103FB00079FB3146922000F075FB3146932000F0EA
:103FC00071FB4FF44051A02000F06CFB1021A320A6
:103FD00000F068FB0121072000F064FB212107208D
:103FE00000F060FB2321072000F05CFB3321072059
:103FF00000F058FB40F233119DE6E22020802320A0
:1040000028800220288004202880642002F0C6F93D
:10401000E0202080012028800A2002F0A3F9E0207F
:104020002080032028800C2002F09CF901202080B1
:104030000A2002F097F9E620208003202880FF2044
:1040400028802880B0202080202028800020288000
:104050000320288040F21F3028800120288040F271
:10406000DF10288000202880B420208004202880B1
:1040700040F21F40288000202880D2202880002085
:104080002880288028802880B62020800220288050
:104090004FF40370288000202880222028800920E7
:1040A0002880002028802880F0202080032028807D
:1040B00029202080D020208000202880BE20208041
:1040C00005202880FE20288001202880FF202880CD
:1040D00000202880B82020800F2028800120288000
:1040E000BA20208001202880642000F02DF80020D4
:1040F000FCF7E2FE04490120C1F880014046FCF7CC
:10410000A5FE1FB0BDE8F08F0080214203460120CC
:1041100000E05843491EC9B2FBD27047034808B5B6
:104120000088ADF80000BDF8000008BD0008006C74
:10413000044910B50880052002F030F9BDE81040B0
:10414000FFF7ECBFFE07006C0C4A10B5BE211180D2
:10415000941C0521218004F052F94FF06632084B7F
:1041600004F09CF904F01EF9208001202080FF203B
:10417000208000202080208010BD0000FE07006C01
:1041800066660440F0B5674E00233146B2798988EF
:1041900046F6040741F66314012A01D02AB11DE056
:1041A000B9421BD0A14202D118E0A14216D1082881
:1041B00014D2DFE800F00406080A0C0E10120620E4
:1041C0000CE007200AE0042008E0052006E00120BA
:1041D00004E0002002E0032000E00220A1F5134CDF
:1041E00045F2103245F21055BCF1410C07D0B942EE
:1041F00005D0914203D0A94201D0A14275D108282F
:1042000012D2DFE800F0110406080A0C0E10802319
:104210000AE0402308E0C02306E0202304E06023F6
:1042200002E0A02300E0E023A94202D14FF458505D
:1042300000E03620914205D0A94203D0A14201D02E
:1042400043F00803B94201D143F00203194600F0DC
:1042500029FAB288A2420AD098063088718802D51D
:10426000884202D303E0884201D9318070802E4811
:10427000811CAA427289028021D100230B80531C29
:10428000038000230B80931C038033885B1E1C0A71
:104290000C80D21C0280DAB20A80B289028000232C
:1042A0000B80531C038000230B80931C03807388B6
:1042B0005B1E1C0A0C80D21C0280D8B212E00022C5
:1042C0000A800A803288521E130A0B80D2B20A80FA
:1042D000B28902800020088008807088401E020A8F
:1042E0000A80C0B20880F0BDFFE7082812D2DFE8DC
:1042F00000F0040608110A0C0E1030230AE0102307
:1043000008E0202306E0382304E0282302E01823F5
:1043100000E00823BDE8F040032043F4805100F0A2
:10432000C1B9000004010020FE07006C2DE9F04F28
:104330004E4F0B463A46BD880C0ADFF834B19189DE
:104340005289A5F513464FEA102C0BF1020A413EA3
:104350001DD0A5F5A646103E19D03E46BE4696F89D
:1043600006903688A5F5D047A6EB0008A8F101080D
:10437000043F17D0A5F5C857633F28D0A5F5AA4735
:104380007646103F51D0B9F1010F63D064E0ABF82D
:1043900000205246AAF800C0C0B2AAF80000ABF84C
:1043A00000100FE0B9F1010F01D11FFA88F0ABF84E
:1043B0000020050A5246AAF80050C0B2AAF8000030
:1043C000ABF800101480D8B21080BDE8F08FB9F1BE
:1043D000000F1BD0ABF800205246AAF800C0C0B2B4
:1043E000AAF80000761E300AAAF80000F0B2108089
:1043F000ABF8001011461480D8B21080BEF802004D
:10440000401E020A0A80C0B20880DEE71FFA88F068
:10441000ABF8002000265246AAF80060AAF8006017
:10442000060AAAF80060C0B2E1E7ABF80020AAF8DB
:1044300000C0521CABF80020C0B2AAF80000ABF8D4
:104440000010AAF80040491CABF80010D8B2AAF836
:104450000000BAE71FFA88F00146104600F022F982
:10446000B089BDE8F04F194600F01CB904010020E6
:10447000FE07006C2DE9F84F82461F460C468B461E
:10448000580700D0012000EBD70079084843203AB4
:10449000C0B202F0FF090026009041E00C2F10D0BE
:1044A000102F12D0182F3ED1204909EBC90001EB83
:1044B00080004FF00008855D28060AD51C48028858
:1044C0000BE009EB49001B49F1E71B4901EB09101F
:1044D000EFE70A9828B91648428821465046FCF76B
:1044E00037FE6806050E1548641CA4B24088A04239
:1044F00019D9A4EB0B00B84209D10AF101001FFA47
:1045000080FA0E485C46018851450CD906E008F156
:10451000010000F0FF08B8F1080FCDD3761CF6B209
:1045200000988642BAD3BDE8F88F0000129A0008BE
:104530002C000020AE8F0008229400080401002007
:104540002DE9FF4F81B00027DDF838B01D469246B7
:1045500080463C46B9464FEA5B0627E0281B401ED2
:10456000C1B20A20FFF7D2FDBAFBF0F00A21B0FB7E
:10457000F1F201FB120027B9691E8C4201DA48B141
:1045800001273030C2B206FB048080B25B46CDF812
:10459000009006E006FB048080B25B462022CDF846
:1045A00000900299FFF766FF641CE4B2AC42D5D3D9
:1045B00005B0BDE8F08F2DE9F84F044600F0FF0884
:1045C00010190D46DDE90A761FFA80FA58191FFA0C
:1045D00080F94FF0000B11E0544502D3E81944462E
:1045E00085B24D450FD23B4629462046CDF800B056
:1045F000FFF740FF04EB570084B2761C3278A2F13B
:1046000020005E28E8D9BDE8F88F2DE9FF4F81B082
:104610008046DDF83CA00E984FF000091F469346F7
:104620004C460AF0010546082BE0381B401EC1B27B
:104630000A20FFF76BFDBBFBF0F00A21B0FBF1F2A3
:1046400001FB1200B9F1000F05D1791E8C4202DA8C
:1046500048B14FF001093030C2B206FB048080B28D
:1046600000950E9B08E05FEA0A6006FB04800E9B43
:1046700080B200950AD530220299FFF7FBFE641C38
:10468000E4B2BC42D1D305B0BDE8F08F2022F3E7FD
:104690000248034900890880704700000401002097
:1046A000FE07006C024A1080901C018070470000D9
:1046B000FE07006C38B50121482000F083F8202463
:1046C000ADF8004010208DF8030003200B4D8DF84D
:1046D000020069462846FCF74FFA20212846FCF7DD
:1046E00099FAADF80040064C69462046FCF744FABA
:1046F00020212046FCF78EFA38BD0000000C014056
:1047000000180140FEE7704730B50F23C2780178EA
:104710000125F2B1144A126801F1E02102F4E062CD
:10472000C2F5E062120AC2F10404D3404278A2400A
:1047300084781C401443220181F80024007800F0A2
:104740001F018D404009800000F1E020C0F80051B9
:1047500030BD01F01F0085404809800000F1E020D5
:10476000C0F8805130BD00000CED00E00249084364
:1047700002490860704700000000FA050CED00E0F7
:10478000034A516821F440410143516070470000E1
:1047900000100240044A0029516901D0014300E0A1
:1047A000814351617047000000100240044A002913
:1047B000D16901D0014300E08143D161704700001D
:1047C00000100240044A0029916901D0014300E031
:1047D000814391617047000000100240044A0029A3
:1047E000D16801D0014300E08143D16070470000EF
:1047F0000010024030B5204A5168204B11F00C01E6
:1048000003D0042901D0082901D0036012E05168C7
:10481000536801F470114FF0020413F4803F04EB6D
:10482000914102D053689B0301D5154B00E0134B17
:104830005943016051680F2303EA1111114B5C5C6D
:104840000168E14041605468072505EA14241C5DB5
:1048500021FA04F48460546805EAD4241B5DD9402D
:10486000C1605268032303EA9232064B1B1F9A5C15
:10487000B1FBF2F1016130BD0010024000127A007C
:1048800000093D00800000202DE9FE434FF6FF7037
:104890000021009040F2DF1340F23F120846FCF77F
:1048A000E5FC594C1F201825208058A1CDE90015A2
:1048B000002002902B46C8221421462000F0BEFAA8
:1048C00048F21F4020804BF640464FF4F0744FF4FE
:1048D000DC7723463222394600200096FCF7C6FCDE
:1048E00039464FF4877723464FF4BE723846009618
:1048F000FCF7BCFC49A0CDE9000501244FF4E178A8
:104900001823C82241460294002000F097FA45A0DF
:10491000CDE900051823C82241460294384600F02C
:104920008DFA42A0CDE900051823C8224146029421
:10493000BE2000F083FA3FA0CDE900051823C8226D
:1049400041460294502000F079FA4FF491784346A2
:104950006422394646200096FCF788FC43468C22A8
:1049600039466E200096FCF781FC34A0CDE90005A5
:104970001823C82239460294002000F05FFA43460B
:104980004FF482723946DC200096FCF76FFC394602
:1049900043464FF49B7208460096FCF767FC2BA039
:1049A000CDE900051823C82239460294A02000F062
:1049B00045FA102529A0CDE900052B46C822BE21C5
:1049C00002941E2000F03AFA26A0CDE9000510233B
:1049D000C822BE210294822000F030FA23A0CDE943
:1049E00000501023C822FA212720FFF7E4FD22A05F
:1049F000CDE900051023C822E62102941E2000F014
:104A00001DFABDE8FE8300002C000020C6F8C8DCBB
:104A1000BDBABCECB2E2CFB5CDB30000BFAACABCF0
:104A200000000000B1A3B4E600000000B4ABCAE48B
:104A300000000000C9E8D6C300000000B8DFD1B90B
:104A4000A3BA202B20202D2000000000B5CDD1B925
:104A5000A3BA2B2020202D2000000000C1A3BEB649
:104A60003A202000C5A8B6C83A2020002E202056A3
:104A700020202E2020560000CAE4B3F6B7BDB2A80D
:104A8000B8DFB5CDB5E7D1B90000000030B587B0CB
:104A900001210820FFF796FE01218803FFF786FE1B
:104AA0004FF46044ADF8144018208DF8170003202F
:104AB000194D8DF8160005A92846FCF75DF821462A
:104AC0002846FCF7A7F80020ADF800004FF48271EB
:104AD000ADF80210ADF804000221ADF80610012176
:104AE000ADF808104902ADF80A103821ADF80C10E5
:104AF000ADF80E000720094CADF8100069462046BD
:104B000000F059F80121204600F040F8FF2000F0A5
:104B100007F807B030BD0000000C0140003800402D
:104B200070B506460024114D03E0641CE4B2C82CA5
:104B30000FD80221284600F033F80028F5D031467E
:104B4000284600F036F8002405E0641CE4B2C82CC6
:104B500001D9002070BD0121284600F021F800286D
:104B6000F3D0284600F023F8C0B270BD00380040F2
:104B700001460548028822F03802028002880A4372
:104B80000280012100F002B80038004000290188AD
:104B900002D041F0400101E021F040010180704766
:104BA0000246002012890A4200D001207047808905
:104BB00070478181704730B502884C8802F44153B8
:104BC0000A88CD8822438C882C4322430C892243B7
:104BD0004C8922438C892243CC8922431A43028088
:104BE000828B22F400628283098A018230BD10B573
:104BF000002305E030F8024B21F813405B1C9BB208
:104C00009342F7D310BD00002DE9F05FA0F10064DE
:104C1000154688468246B4F5002F50D2FBF71AFF9E
:104C2000E70AC4F34906C6F58064A54200D82C46BD
:104C3000DFF890B04FF0006000EBC72081464FF4E2
:104C400080622049FFF7D3FF00204FF6FF7206E095
:104C500033183BF81310914203D1401C80B2A0429C
:104C6000F6D3A04223D24846FBF7A0FE00205A46C6
:104C700006E038F810108319401C22F8131080B297
:104C8000A042F6D348464FF480620E4900F01CF86B
:104C9000A54210D0281B08EB4408A244002685B288
:104CA0004FF480647F1CA542C4D82C46C2E722463C
:104CB00041465046EAE7BDE8F05FFBF7A9BEBDE814
:104CC000F09F0000340100202DE9F04116460F4608
:104CD0000546002407E037F814102846FBF7A0FE2D
:104CE000641CA4B2AD1CB442F5D3BDE8F081000051
:104CF0000CB50022264800920192016841F48031EF
:104D000001604FF4A063016801F400310191009942
:104D1000491C0091019911B900999942F3D1016898
:104D2000890333D5012101911A490A6842F0100222
:104D30000A600A6822F003020A600A6842F002026E
:104D40000A604168416041684160416841F48061A6
:104D50004160416821F47C114160416841F4E811EF
:104D60004160016841F08071016001688901FCD5F2
:104D7000416821F003014160416841F00201416056
:104D80004168C1F381010229FAD10CBD01920CBD29
:104D900000100240002002402DE9F04F1F468246DD
:104DA00093B013460C468946780701D0012100E0F4
:104DB000002101EBD7017943C8B212900C2F03D028
:104DC000102F01D0182F31D13A4669461846FBF70B
:104DD0003DFF002026E01DF80860DFF858B00025F0
:104DE000300602D5BBF8002003E01C9828B9124811
:104DF000028821465046FCF7ABF97006641C060E8B
:104E0000A4B2A4EB0900B84205D10AF101004C4656
:104E10001FFA80FA03E06D1CEDB2082DE0D308F113
:104E20000100C0B2129980468842D4D313B0BDE8C5
:104E3000F08F00002C0000202E0000202DE9FF4FF5
:104E400081B00446DDE90E7580469B460E468A46D3
:104E5000002081461DE0B9F1000F20D003994FF0EA
:104E6000000908EB0100401BA04202DA701986B26B
:104E700044460AEB0B00401BB0420DDB109800903B
:104E80002B463A4631462046FFF786FF601984B22A
:104E9000BF1C3A78002ADED105B0BDE8F08F802A29
:104EA00001D90120D5E7039908EB0100A0EB5500DB
:104EB000A04202DA701986B244460AEB0B00401B8E
:104EC000B042E9DB0D2A0BD0109800902B463146FA
:104ED0002046FFF7CFFA04EB550084B27F1CD8E7D9
:104EE000701986B244467F1CF5E74FF0E021042894
:104EF000086903D020F004000861704740F0040006
:104F0000FAE710B502F0E6FF012803D0BDE8104033
:104F100002F0D4BC10BD00000F4810B5016841F08C
:104F20000101016041680D4A1140416001680C4A6D
:104F300011400160016821F480210160416821F481
:104F4000FE0141604FF41F018160FFF7D1FE05496A
:104F50004FF00060086010BD001002400000FFF834
:104F6000FFFFF6FE08ED00E02DE9FF5F054600209B
:104F70008DF80C00CD480C46D0F82801002819D136
:104F8000DFF82CB3CB4B01269BF800209889D98AF7
:104F90004FF4DC784FF48777012A0DD0022A7CD0B9
:104FA000032A07D1B84205D9414503D9FFF76CFC64
:104FB0008BF80060BDE8FF9F4FF6FF794FF0180AAD
:104FC000B0F58C7F2AD9C446614527D9484525D0FC
:104FD0004FF4F0734FF4A07261463846CDF800905C
:104FE000FCF744F94FF4FA7001F0BCF942F61230C4
:104FF00000904FF4F0734FF4A07241463846FCF72E
:1050000035F9ADA1CDE9001A1823C82202964FF454
:10501000E1713846FFF712FF8BF80060A5498889D7
:1050200028283BD2CA8A424538D94FF4F074234627
:10503000322241460020CDF80090FCF717F9C82035
:1050400001F090F942F61230009023463222414698
:105050000020FCF70BF99AA1CDE9001A1823C82209
:1050600002964FF4E1710020FFF7E8FE96488DF8B4
:105070000C6000230A2203A9006802F087FD0221C8
:105080008BF8001091490320CDE900010023F022A4
:105090008FA1934802F0F2FE8CE7FDE0A0F1BF0281
:1050A0004F2A0BD2CA8A424508D94846FBF7CEFEA2
:1050B00001F06CFF03208BF800007BE7A0F13D02BC
:1050C0004FF47A7B4FF49178272A25D2CA8A424539
:1050D00022D2BA4220D94346642239464620CDF82E
:1050E0000090FCF7C3F8C82001F03CF942F61230FA
:1050F00000904346642239464620FCF7B7F879A170
:10510000CDE9001A1823C822029639460020FFF77D
:1051100095FE2888643028E0A0F16502272A41D254
:10512000CA8A42453ED2BA423CD943468C223946CD
:105130006E20CDF80090FCF799F8C82001F012F924
:1051400042F61230009043468C2239466E20FCF71E
:105150008DF867A1CDE9001A1823C82202963946B6
:105160000020FFF76BFE2888643880B25C46B0FBF5
:10517000F4F2288000261027CDE900760123FA21D9
:105180001E20FFF742FA28880A21B0FBF1F1B0FB9C
:10519000F4F06FF01802504301EB80020223FA2171
:1051A0002A2074E0A0F1DD02312A27D2CA8A4245C2
:1051B00024D2BA4222D94FF4827543462A46394650
:1051C000DC20CDF80090FCF751F8C82001F0CAF8B7
:1051D00042F61230009043462A463946DC20FCF75E
:1051E00045F847A1CDE9001A1823C822029639468E
:1051F000EB20FFF723FE208864302CE0A0F20F1094
:105200003128BFF449AFC88A4045FAD2B8427FF688
:1052100043AF40F23B15394643462A460846CDF88F
:105220000090FCF723F8C82001F09CF842F61230F9
:105230003946009043462A460846FCF717F831A144
:10524000CDE9001A1823C822029639464046FFF7D6
:10525000F5FD2088643880B25D46B0FBF5F2208011
:1052600000261027CDE900760123FA215020FFF710
:10527000CCF920880A21B0FBF1F1B0FBF5F06FF01A
:105280001802504301EB80020223FA215A20CDE993
:105290000076FFF7BAF98DE6B842FCD94145FAD954
:1052A0000A48006802F0F8F880E600000080234217
:1052B000000000203C000020B1A3B4E60000000084
:1052C000BFAACABC0000000014000020300000206B
:1052D000636F6E74726F6C5F7461736B00000000BB
:1052E00011610008202020202020202B20202000D9
:1052F000202020202020202020202D2020200000E1
:105300002B0000002D0000002DE9FF4F83B00E465A
:10531000DDE910A94E4907464FF47840DDF850808A
:1053200008804CA01024CDE900404B4D9346A021AD
:105330006B882A882820FFF73EF948A0CDE9004075
:105340006B882A88A0217820FFF735F944A0CDE9A1
:1053500000406B882A88B4212820FFF72CF941A04F
:10536000CDE900406B882A88B4217820FFF723F923
:105370003DA0CDE900406B882A88C8212820FFF78E
:105380001AF93AA0CDE900406B882A88C821782014
:10539000FFF711F936A0CDE900406B882A88DC219F
:1053A0002820FFF708F933A0CDE900406B882A8850
:1053B000DC217820FFF7FFF82FA0CDE900406B88B3
:1053C0002A88F0212820FFF7F6F804233A46A02186
:1053D00040200094FFF7B4F804233246A021902027
:1053E0000094FFF7ADF804235A46B42140200094FE
:1053F000FFF7A6F804230094B4219020069AFFF743
:105400009FF804235246C82140200094FFF798F8E3
:1054100004234A46C82190200094FFF791F8042302
:105420000094DC214020129AFFF78AF804230094AC
:10543000DC219020139AFFF783F803234246F021E2
:1054400060200094FFF77CF807B0BDE8F08F000003
:105450002C00002078313A000401002079313A0014
:1054600078323A0079323A0078333A0079333A00A8
:1054700078343A0079343A006661632069733A00FF
:105480002DE9F04F002589B02C461F20FE4E4FF627
:10549000FF773080FD4807803846FBF7D7FC4FF494
:1054A0007848A6F800803846FBF7D0FCF84800277B
:1054B000378001681020CDE9000128216423A02253
:1054C0000846FFF778F814214246084600F090FAA3
:1054D000F048DFF8C48380F820704762ED4E012069
:1054E0007168884796F820000121B1EB901F4AD1DE
:1054F00020F0400086F8200005A8B28920F8252079
:1055000000EB85006D1C0024F18AEDB24180012D75
:1055100006D0022D12D0032D21D0042D33D13FE02F
:1055200014214FF6FF72084600F062FAB8F8000046
:105530004FF47842143880B2142122E0B8F8000009
:105540004646143880B24FF6FF72142100F050FA2C
:1055500070884FF47842143881B2142011E0B8F802
:1055600002004646143881B24FF6FF72142000F054
:105570003FFA70884FF47842143881B2308814387A
:1055800080B200F035FA0A2000F0ECFE641CA4B2F0
:10559000B4F57A7FA2D900F063FA09B0BDE8F08FC4
:1055A000BDF81400BDF81810411A00D54942BDF8E5
:1055B0001600BDF81A20801A00D5404249434043E6
:1055C000084402F01CFF01F06EFC02F0EBFE85B215
:1055D000BDF81C00BDF82010411A00D54942BDF8A5
:1055E0001E00BDF82220801A00D5404249434043A6
:1055F000084402F004FF01F056FC02F0D3FE80B232
:10560000814603F00FFB0646284603F00BFB3146AC
:1056100003F0F2F903F05CF906460F464FF06632EC
:105620009E4B02F0FFFE4FD39D4A9E4B30463946BB
:1056300003F032F848D3E5B3B9F1000F44D0BDF818
:105640001400BDF81C10411A00D54942BDF81600DF
:10565000BDF81E20801A00D540424943404308440B
:1056600002F0CDFE01F01FFC02F09CFE85B2BDF8F9
:105670001800BDF82010411A00D54942BDF81A00A3
:10568000BDF82220801A00D54042494340430844D7
:1056900002F0B5FE01F007FC02F084FE80B203F0D8
:1056A000C1FA0646284603F0BDFA314603F0A4F9D4
:1056B00000E009E003F00CF906460F464FF06632B1
:1056C000764B02F0AFFE26D2B8F80210B8F8000010
:1056D00014391438002589B280B24FF6FF7200F0F9
:1056E00087F914214FF47842084600F081F900222E
:1056F0006D4B3046394602F0D1FE02F053FE80B2C7
:10570000BDF82220BDF82030BDF81E10CDE90320E1
:10571000CDE901137AE0DFF888B1DFF888915A46C5
:105720004B463046394602F0B7FFCDD3BDF81800DE
:10573000BDF81C10411A00D54942BDF81A00BDF849
:105740001E20801A00D5404249434043084402F0DD
:1057500056FE01F0A8FB02F025FE85B2BDF814004C
:10576000BDF82010411A00D54942BDF81600BDF819
:105770002220801A00D5404249434043084402F0A9
:105780003EFE01F090FB02F00DFE80B203F04AFAFB
:105790000646284603F046FA314603F02DF903F099
:1057A00097F806460F464FF066323C4B02F03AFE41
:1057B00006D35A464B463046394602F06DFF33D287
:1057C000B8F80210B8F8000014391438002589B26E
:1057D00080B24FF6FF7200F00BF914214FF47842BB
:1057E000084600F005F900222F4B3046394602F0FA
:1057F00055FE02F0D7FD80B2BDF82210BDF8203072
:10580000BDF81E20CDE90310CDE90123BDF81C0031
:105810000090BDF81A30BDF81820BDF81610BDF87C
:105820001400FFF771FD59E6BDF81800BDF81470BB
:105830008146C01B03F0DEF9B8F800600546A6F10A
:10584000280003F0D7F9294603F0D6F8114D824617
:10585000686209EB070003F0E5F9514603F0F6F939
:105860000746304603F0DEF9394603F0BBFA4FF045
:10587000FF3103F05EFB03F081F9A885BDF81E003F
:10588000BDF81610834611E02C0000202E000020E9
:1058900070A700083C000020040100206666EE3F6F
:1058A000CDCCCCCCCCCCF03F00005940401A01917B
:1058B00003F0A0F9B8F802708146A7F1280003F0C0
:1058C00099F9494603F098F8A86201998146009039
:1058D0000BEB010003F0A6F9494603F0B7F9814646
:1058E000384603F09FF9494603F07CFA4FF0FF3148
:1058F00003F01FFB03F042F9E885504603F03EF940
:10590000002800DA4042022807DC009803F036F94C
:10591000002800DA4042022831DD143F143E002501
:10592000B9B2B0B24FF6FF7200F062F814214FF432
:105930007842084600F05CF820A11020CDE9000173
:10594000B8F80230B8F800201A212820FEF733FEFC
:105950001F4991F8300048B1002081F8300038B17B
:105960001B489021001F0170D02106E00120F4E7C0
:105970001748D021001F017090214170AEE51548F5
:105980001F214FF6FF7401802046FBF75FFA12A13A
:105990001020CDE90001B8F80230B8F800206E21DF
:1059A0002320FEF708FE4FF47A7000F0DBFC00F0D5
:1059B00099F92046FBF74AFAEFE500005450204ED3
:1059C00065656420726561646A7573742100000006
:1059D0003C0000202C000020546F75636820536346
:1059E0007265656E2041646A757374204F4B2100A7
:1059F0002DE9F041044619480D460B46028004F19A
:105A00000D0082B2193880B2FBF7F0FA05F10D00F3
:105A100083B2193881B222461046FBF7E7FA6E1CB2
:105A200004F10108B1B21FFA88F0FBF72BFBB1B209
:105A3000661EB0B2FBF726FB6F1EB9B21FFA88F0E4
:105A4000FBF720FBB9B2B0B2FBF71CFB294620469E
:105A5000BDE8F0410622FBF723BB00002C0000202C
:105A60000C4810B5017C0A2901D0002010BD072286
:105A70000949FFF7BCF808489021243890F83030E5
:105A8000001FD02213B10170427001E0027041701A
:105A9000012010BD0000070860000020F8B50121BA
:105AA0008820FEF78FFE0220ADF800001024284F5A
:105AB0008DF8034003268DF8026069463846FBF7EF
:105AC0005BF802213846FBF7A5F80420ADF800008A
:105AD00048258DF8035069463846FBF74DF80421F8
